{
  "_format": "hh-sol-artifact-1",
  "contractName": "Dappcord",
  "sourceName": "contracts/Dappcord.sol",
  "abi": [
    {
      "inputs": [
        {
          "internalType": "string",
          "name": "name",
          "type": "string"
        },
        {
          "internalType": "string",
          "name": "symbol",
          "type": "string"
        }
      ],
      "stateMutability": "nonpayable",
      "type": "constructor"
    },
    {
      "anonymous": false,
      "inputs": [
        {
          "indexed": true,
          "internalType": "address",
          "name": "owner",
          "type": "address"
        },
        {
          "indexed": true,
          "internalType": "address",
          "name": "approved",
          "type": "address"
        },
        {
          "indexed": true,
          "internalType": "uint256",
          "name": "tokenId",
          "type": "uint256"
        }
      ],
      "name": "Approval",
      "type": "event"
    },
    {
      "anonymous": false,
      "inputs": [
        {
          "indexed": true,
          "internalType": "address",
          "name": "owner",
          "type": "address"
        },
        {
          "indexed": true,
          "internalType": "address",
          "name": "operator",
          "type": "address"
        },
        {
          "indexed": false,
          "internalType": "bool",
          "name": "approved",
          "type": "bool"
        }
      ],
      "name": "ApprovalForAll",
      "type": "event"
    },
    {
      "anonymous": false,
      "inputs": [
        {
          "indexed": true,
          "internalType": "address",
          "name": "from",
          "type": "address"
        },
        {
          "indexed": true,
          "internalType": "address",
          "name": "to",
          "type": "address"
        },
        {
          "indexed": true,
          "internalType": "uint256",
          "name": "tokenId",
          "type": "uint256"
        }
      ],
      "name": "Transfer",
      "type": "event"
    },
    {
      "inputs": [
        {
          "internalType": "address",
          "name": "to",
          "type": "address"
        },
        {
          "internalType": "uint256",
          "name": "tokenId",
          "type": "uint256"
        }
      ],
      "name": "approve",
      "outputs": [],
      "stateMutability": "nonpayable",
      "type": "function"
    },
    {
      "inputs": [
        {
          "internalType": "address",
          "name": "owner",
          "type": "address"
        }
      ],
      "name": "balanceOf",
      "outputs": [
        {
          "internalType": "uint256",
          "name": "",
          "type": "uint256"
        }
      ],
      "stateMutability": "view",
      "type": "function"
    },
    {
      "inputs": [],
      "name": "channelCount",
      "outputs": [
        {
          "internalType": "uint256",
          "name": "",
          "type": "uint256"
        }
      ],
      "stateMutability": "view",
      "type": "function"
    },
    {
      "inputs": [
        {
          "internalType": "uint256",
          "name": "",
          "type": "uint256"
        }
      ],
      "name": "channels",
      "outputs": [
        {
          "internalType": "uint256",
          "name": "id",
          "type": "uint256"
        },
        {
          "internalType": "string",
          "name": "name",
          "type": "string"
        },
        {
          "internalType": "uint256",
          "name": "cost",
          "type": "uint256"
        }
      ],
      "stateMutability": "view",
      "type": "function"
    },
    {
      "inputs": [
        {
          "internalType": "string",
          "name": "_name",
          "type": "string"
        },
        {
          "internalType": "uint256",
          "name": "_cost",
          "type": "uint256"
        }
      ],
      "name": "createchannel",
      "outputs": [],
      "stateMutability": "nonpayable",
      "type": "function"
    },
    {
      "inputs": [
        {
          "internalType": "uint256",
          "name": "tokenId",
          "type": "uint256"
        }
      ],
      "name": "getApproved",
      "outputs": [
        {
          "internalType": "address",
          "name": "",
          "type": "address"
        }
      ],
      "stateMutability": "view",
      "type": "function"
    },
    {
      "inputs": [
        {
          "internalType": "uint256",
          "name": "_id",
          "type": "uint256"
        }
      ],
      "name": "getChannel",
      "outputs": [
        {
          "components": [
            {
              "internalType": "uint256",
              "name": "id",
              "type": "uint256"
            },
            {
              "internalType": "string",
              "name": "name",
              "type": "string"
            },
            {
              "internalType": "uint256",
              "name": "cost",
              "type": "uint256"
            }
          ],
          "internalType": "struct Dappcord.Channel",
          "name": "",
          "type": "tuple"
        }
      ],
      "stateMutability": "view",
      "type": "function"
    },
    {
      "inputs": [
        {
          "internalType": "uint256",
          "name": "",
          "type": "uint256"
        },
        {
          "internalType": "address",
          "name": "",
          "type": "address"
        }
      ],
      "name": "hasJoined",
      "outputs": [
        {
          "internalType": "bool",
          "name": "",
          "type": "bool"
        }
      ],
      "stateMutability": "view",
      "type": "function"
    },
    {
      "inputs": [
        {
          "internalType": "address",
          "name": "owner",
          "type": "address"
        },
        {
          "internalType": "address",
          "name": "operator",
          "type": "address"
        }
      ],
      "name": "isApprovedForAll",
      "outputs": [
        {
          "internalType": "bool",
          "name": "",
          "type": "bool"
        }
      ],
      "stateMutability": "view",
      "type": "function"
    },
    {
      "inputs": [
        {
          "internalType": "uint256",
          "name": "_id",
          "type": "uint256"
        }
      ],
      "name": "mint",
      "outputs": [],
      "stateMutability": "payable",
      "type": "function"
    },
    {
      "inputs": [],
      "name": "name",
      "outputs": [
        {
          "internalType": "string",
          "name": "",
          "type": "string"
        }
      ],
      "stateMutability": "view",
      "type": "function"
    },
    {
      "inputs": [],
      "name": "owner",
      "outputs": [
        {
          "internalType": "address",
          "name": "",
          "type": "address"
        }
      ],
      "stateMutability": "view",
      "type": "function"
    },
    {
      "inputs": [
        {
          "internalType": "uint256",
          "name": "tokenId",
          "type": "uint256"
        }
      ],
      "name": "ownerOf",
      "outputs": [
        {
          "internalType": "address",
          "name": "",
          "type": "address"
        }
      ],
      "stateMutability": "view",
      "type": "function"
    },
    {
      "inputs": [
        {
          "internalType": "address",
          "name": "from",
          "type": "address"
        },
        {
          "internalType": "address",
          "name": "to",
          "type": "address"
        },
        {
          "internalType": "uint256",
          "name": "tokenId",
          "type": "uint256"
        }
      ],
      "name": "safeTransferFrom",
      "outputs": [],
      "stateMutability": "nonpayable",
      "type": "function"
    },
    {
      "inputs": [
        {
          "internalType": "address",
          "name": "from",
          "type": "address"
        },
        {
          "internalType": "address",
          "name": "to",
          "type": "address"
        },
        {
          "internalType": "uint256",
          "name": "tokenId",
          "type": "uint256"
        },
        {
          "internalType": "bytes",
          "name": "data",
          "type": "bytes"
        }
      ],
      "name": "safeTransferFrom",
      "outputs": [],
      "stateMutability": "nonpayable",
      "type": "function"
    },
    {
      "inputs": [
        {
          "internalType": "address",
          "name": "operator",
          "type": "address"
        },
        {
          "internalType": "bool",
          "name": "approved",
          "type": "bool"
        }
      ],
      "name": "setApprovalForAll",
      "outputs": [],
      "stateMutability": "nonpayable",
      "type": "function"
    },
    {
      "inputs": [
        {
          "internalType": "bytes4",
          "name": "interfaceId",
          "type": "bytes4"
        }
      ],
      "name": "supportsInterface",
      "outputs": [
        {
          "internalType": "bool",
          "name": "",
          "type": "bool"
        }
      ],
      "stateMutability": "view",
      "type": "function"
    },
    {
      "inputs": [],
      "name": "symbol",
      "outputs": [
        {
          "internalType": "string",
          "name": "",
          "type": "string"
        }
      ],
      "stateMutability": "view",
      "type": "function"
    },
    {
      "inputs": [
        {
          "internalType": "uint256",
          "name": "tokenId",
          "type": "uint256"
        }
      ],
      "name": "tokenURI",
      "outputs": [
        {
          "internalType": "string",
          "name": "",
          "type": "string"
        }
      ],
      "stateMutability": "view",
      "type": "function"
    },
    {
      "inputs": [],
      "name": "totalysupply",
      "outputs": [
        {
          "internalType": "uint256",
          "name": "",
          "type": "uint256"
        }
      ],
      "stateMutability": "view",
      "type": "function"
    },
    {
      "inputs": [
        {
          "internalType": "address",
          "name": "from",
          "type": "address"
        },
        {
          "internalType": "address",
          "name": "to",
          "type": "address"
        },
        {
          "internalType": "uint256",
          "name": "tokenId",
          "type": "uint256"
        }
      ],
      "name": "transferFrom",
      "outputs": [],
      "stateMutability": "nonpayable",
      "type": "function"
    },
    {
      "inputs": [],
      "name": "withdraw",
      "outputs": [],
      "stateMutability": "nonpayable",
      "type": "function"
    }
  ],
  "bytecode": "0x6080604052600060075560006008553480156200001b57600080fd5b5060405162003a2e38038062003a2e833981810160405281019062000041919062000245565b8181816000908162000054919062000515565b50806001908162000066919062000515565b50505033600660006101000a81548173ffffffffffffffffffffffffffffffffffffffff021916908373ffffffffffffffffffffffffffffffffffffffff1602179055505050620005fc565b6000604051905090565b600080fd5b600080fd5b600080fd5b600080fd5b6000601f19601f8301169050919050565b7f4e487b7100000000000000000000000000000000000000000000000000000000600052604160045260246000fd5b6200011b82620000d0565b810181811067ffffffffffffffff821117156200013d576200013c620000e1565b5b80604052505050565b600062000152620000b2565b905062000160828262000110565b919050565b600067ffffffffffffffff821115620001835762000182620000e1565b5b6200018e82620000d0565b9050602081019050919050565b60005b83811015620001bb5780820151818401526020810190506200019e565b60008484015250505050565b6000620001de620001d88462000165565b62000146565b905082815260208101848484011115620001fd57620001fc620000cb565b5b6200020a8482856200019b565b509392505050565b600082601f8301126200022a5762000229620000c6565b5b81516200023c848260208601620001c7565b91505092915050565b600080604083850312156200025f576200025e620000bc565b5b600083015167ffffffffffffffff81111562000280576200027f620000c1565b5b6200028e8582860162000212565b925050602083015167ffffffffffffffff811115620002b257620002b1620000c1565b5b620002c08582860162000212565b9150509250929050565b600081519050919050565b7f4e487b7100000000000000000000000000000000000000000000000000000000600052602260045260246000fd5b600060028204905060018216806200031d57607f821691505b602082108103620003335762000332620002d5565b5b50919050565b60008190508160005260206000209050919050565b60006020601f8301049050919050565b600082821b905092915050565b6000600883026200039d7fffffffffffffffffffffffffffffffffffffffffffffffffffffffffffffffff826200035e565b620003a986836200035e565b95508019841693508086168417925050509392505050565b6000819050919050565b6000819050919050565b6000620003f6620003f0620003ea84620003c1565b620003cb565b620003c1565b9050919050565b6000819050919050565b6200041283620003d5565b6200042a6200042182620003fd565b8484546200036b565b825550505050565b600090565b6200044162000432565b6200044e81848462000407565b505050565b5b8181101562000476576200046a60008262000437565b60018101905062000454565b5050565b601f821115620004c5576200048f8162000339565b6200049a846200034e565b81016020851015620004aa578190505b620004c2620004b9856200034e565b83018262000453565b50505b505050565b600082821c905092915050565b6000620004ea60001984600802620004ca565b1980831691505092915050565b6000620005058383620004d7565b9150826002028217905092915050565b6200052082620002ca565b67ffffffffffffffff8111156200053c576200053b620000e1565b5b62000548825462000304565b620005558282856200047a565b600060209050601f8311600181146200058d576000841562000578578287015190505b620005848582620004f7565b865550620005f4565b601f1984166200059d8662000339565b60005b82811015620005c757848901518255600182019150602085019450602081019050620005a0565b86831015620005e75784890151620005e3601f891682620004d7565b8355505b6001600288020188555050505b505050505050565b613422806200060c6000396000f3fe6080604052600436106101355760003560e01c806368194719116100ab578063a22cb4651161006f578063a22cb4651461042b578063acf8bf2a14610454578063b88d4fde1461047f578063c87b56dd146104a8578063e5949b5d146104e5578063e985e9c51461052457610135565b8063681947191461033f57806370a082311461037c5780638da5cb5b146103b957806395d89b41146103e4578063a0712d681461040f57610135565b806310df54a0116100fd57806310df54a01461023157806323b872dd1461026e5780633ccfd60b1461029757806342842e0e146102ae578063577af852146102d75780636352211e1461030257610135565b806301ffc9a71461013a57806306fdde0314610177578063081812fc146101a25780630820afeb146101df578063095ea7b314610208575b600080fd5b34801561014657600080fd5b50610161600480360381019061015c91906120c9565b610561565b60405161016e9190612111565b60405180910390f35b34801561018357600080fd5b5061018c610643565b60405161019991906121bc565b60405180910390f35b3480156101ae57600080fd5b506101c960048036038101906101c49190612214565b6106d5565b6040516101d69190612282565b60405180910390f35b3480156101eb57600080fd5b50610206600480360381019061020191906123d2565b61071b565b005b34801561021457600080fd5b5061022f600480360381019061022a919061245a565b610826565b005b34801561023d57600080fd5b5061025860048036038101906102539190612214565b61093d565b6040516102659190612543565b60405180910390f35b34801561027a57600080fd5b5061029560048036038101906102909190612565565b610a10565b005b3480156102a357600080fd5b506102ac610a70565b005b3480156102ba57600080fd5b506102d560048036038101906102d09190612565565b610b9b565b005b3480156102e357600080fd5b506102ec610bbb565b6040516102f991906125c7565b60405180910390f35b34801561030e57600080fd5b5061032960048036038101906103249190612214565b610bc1565b6040516103369190612282565b60405180910390f35b34801561034b57600080fd5b50610366600480360381019061036191906125e2565b610c47565b6040516103739190612111565b60405180910390f35b34801561038857600080fd5b506103a3600480360381019061039e9190612622565b610c76565b6040516103b091906125c7565b60405180910390f35b3480156103c557600080fd5b506103ce610d2d565b6040516103db9190612282565b60405180910390f35b3480156103f057600080fd5b506103f9610d53565b60405161040691906121bc565b60405180910390f35b61042960048036038101906104249190612214565b610de5565b005b34801561043757600080fd5b50610452600480360381019061044d919061267b565b610f22565b005b34801561046057600080fd5b50610469610f38565b60405161047691906125c7565b60405180910390f35b34801561048b57600080fd5b506104a660048036038101906104a1919061275c565b610f3e565b005b3480156104b457600080fd5b506104cf60048036038101906104ca9190612214565b610fa0565b6040516104dc91906121bc565b60405180910390f35b3480156104f157600080fd5b5061050c60048036038101906105079190612214565b611008565b60405161051b939291906127df565b60405180910390f35b34801561053057600080fd5b5061054b6004803603810190610546919061281d565b6110ba565b6040516105589190612111565b60405180910390f35b60007f80ac58cd000000000000000000000000000000000000000000000000000000007bffffffffffffffffffffffffffffffffffffffffffffffffffffffff1916827bffffffffffffffffffffffffffffffffffffffffffffffffffffffff1916148061062c57507f5b5e139f000000000000000000000000000000000000000000000000000000007bffffffffffffffffffffffffffffffffffffffffffffffffffffffff1916827bffffffffffffffffffffffffffffffffffffffffffffffffffffffff1916145b8061063c575061063b8261114e565b5b9050919050565b6060600080546106529061288c565b80601f016020809104026020016040519081016040528092919081815260200182805461067e9061288c565b80156106cb5780601f106106a0576101008083540402835291602001916106cb565b820191906000526020600020905b8154815290600101906020018083116106ae57829003601f168201915b5050505050905090565b60006106e0826111b8565b6004600083815260200190815260200160002060009054906101000a900473ffffffffffffffffffffffffffffffffffffffff169050919050565b600660009054906101000a900473ffffffffffffffffffffffffffffffffffffffff1673ffffffffffffffffffffffffffffffffffffffff163373ffffffffffffffffffffffffffffffffffffffff16146107ab576040517f08c379a00000000000000000000000000000000000000000000000000000000081526004016107a290612909565b60405180910390fd5b600760008154809291906107be90612958565b919050555060405180606001604052806007548152602001838152602001828152506009600060075481526020019081526020016000206000820151816000015560208201518160010190816108149190612b4c565b50604082015181600201559050505050565b600061083182610bc1565b90508073ffffffffffffffffffffffffffffffffffffffff168373ffffffffffffffffffffffffffffffffffffffff16036108a1576040517f08c379a000000000000000000000000000000000000000000000000000000000815260040161089890612c90565b60405180910390fd5b8073ffffffffffffffffffffffffffffffffffffffff166108c0611203565b73ffffffffffffffffffffffffffffffffffffffff1614806108ef57506108ee816108e9611203565b6110ba565b5b61092e576040517f08c379a000000000000000000000000000000000000000000000000000000000815260040161092590612d22565b60405180910390fd5b610938838361120b565b505050565b61094561203c565b600960008381526020019081526020016000206040518060600160405290816000820154815260200160018201805461097d9061288c565b80601f01602080910402602001604051908101604052809291908181526020018280546109a99061288c565b80156109f65780601f106109cb576101008083540402835291602001916109f6565b820191906000526020600020905b8154815290600101906020018083116109d957829003601f168201915b505050505081526020016002820154815250509050919050565b610a21610a1b611203565b826112c4565b610a60576040517f08c379a0000000000000000000000000000000000000000000000000000000008152600401610a5790612db4565b60405180910390fd5b610a6b838383611359565b505050565b600660009054906101000a900473ffffffffffffffffffffffffffffffffffffffff1673ffffffffffffffffffffffffffffffffffffffff163373ffffffffffffffffffffffffffffffffffffffff1614610b00576040517f08c379a0000000000000000000000000000000000000000000000000000000008152600401610af790612909565b60405180910390fd5b6000600660009054906101000a900473ffffffffffffffffffffffffffffffffffffffff1673ffffffffffffffffffffffffffffffffffffffff1647604051610b4890612e05565b60006040518083038185875af1925050503d8060008114610b85576040519150601f19603f3d011682016040523d82523d6000602084013e610b8a565b606091505b5050905080610b9857600080fd5b50565b610bb683838360405180602001604052806000815250610f3e565b505050565b60085481565b600080610bcd83611652565b9050600073ffffffffffffffffffffffffffffffffffffffff168173ffffffffffffffffffffffffffffffffffffffff1603610c3e576040517f08c379a0000000000000000000000000000000000000000000000000000000008152600401610c3590612e66565b60405180910390fd5b80915050919050565b600a6020528160005260406000206020528060005260406000206000915091509054906101000a900460ff1681565b60008073ffffffffffffffffffffffffffffffffffffffff168273ffffffffffffffffffffffffffffffffffffffff1603610ce6576040517f08c379a0000000000000000000000000000000000000000000000000000000008152600401610cdd90612ef8565b60405180910390fd5b600360008373ffffffffffffffffffffffffffffffffffffffff1673ffffffffffffffffffffffffffffffffffffffff168152602001908152602001600020549050919050565b600660009054906101000a900473ffffffffffffffffffffffffffffffffffffffff1681565b606060018054610d629061288c565b80601f0160208091040260200160405190810160405280929190818152602001828054610d8e9061288c565b8015610ddb5780601f10610db057610100808354040283529160200191610ddb565b820191906000526020600020905b815481529060010190602001808311610dbe57829003601f168201915b5050505050905090565b60008103610df257600080fd5b600754811115610e0157600080fd5b60001515600a600083815260200190815260200160002060003373ffffffffffffffffffffffffffffffffffffffff1673ffffffffffffffffffffffffffffffffffffffff16815260200190815260200160002060009054906101000a900460ff16151514610e6f57600080fd5b6009600082815260200190815260200160002060020154341015610e9257600080fd5b6001600a600083815260200190815260200160002060003373ffffffffffffffffffffffffffffffffffffffff1673ffffffffffffffffffffffffffffffffffffffff16815260200190815260200160002060006101000a81548160ff02191690831515021790555060086000815480929190610f0e90612958565b9190505550610f1f3360085461168f565b50565b610f34610f2d611203565b83836116ad565b5050565b60075481565b610f4f610f49611203565b836112c4565b610f8e576040517f08c379a0000000000000000000000000000000000000000000000000000000008152600401610f8590612db4565b60405180910390fd5b610f9a84848484611819565b50505050565b6060610fab826111b8565b6000610fb5611875565b90506000815111610fd55760405180602001604052806000815250611000565b80610fdf8461188c565b604051602001610ff0929190612f54565b6040516020818303038152906040525b915050919050565b60096020528060005260406000206000915090508060000154908060010180546110319061288c565b80601f016020809104026020016040519081016040528092919081815260200182805461105d9061288c565b80156110aa5780601f1061107f576101008083540402835291602001916110aa565b820191906000526020600020905b81548152906001019060200180831161108d57829003601f168201915b5050505050908060020154905083565b6000600560008473ffffffffffffffffffffffffffffffffffffffff1673ffffffffffffffffffffffffffffffffffffffff16815260200190815260200160002060008373ffffffffffffffffffffffffffffffffffffffff1673ffffffffffffffffffffffffffffffffffffffff16815260200190815260200160002060009054906101000a900460ff16905092915050565b60007f01ffc9a7000000000000000000000000000000000000000000000000000000007bffffffffffffffffffffffffffffffffffffffffffffffffffffffff1916827bffffffffffffffffffffffffffffffffffffffffffffffffffffffff1916149050919050565b6111c18161195a565b611200576040517f08c379a00000000000000000000000000000000000000000000000000000000081526004016111f790612e66565b60405180910390fd5b50565b600033905090565b816004600083815260200190815260200160002060006101000a81548173ffffffffffffffffffffffffffffffffffffffff021916908373ffffffffffffffffffffffffffffffffffffffff160217905550808273ffffffffffffffffffffffffffffffffffffffff1661127e83610bc1565b73ffffffffffffffffffffffffffffffffffffffff167f8c5be1e5ebec7d5bd14f71427d1e84f3dd0314c0f7b2291e5b200ac8c7c3b92560405160405180910390a45050565b6000806112d083610bc1565b90508073ffffffffffffffffffffffffffffffffffffffff168473ffffffffffffffffffffffffffffffffffffffff161480611312575061131181856110ba565b5b8061135057508373ffffffffffffffffffffffffffffffffffffffff16611338846106d5565b73ffffffffffffffffffffffffffffffffffffffff16145b91505092915050565b8273ffffffffffffffffffffffffffffffffffffffff1661137982610bc1565b73ffffffffffffffffffffffffffffffffffffffff16146113cf576040517f08c379a00000000000000000000000000000000000000000000000000000000081526004016113c690612fea565b60405180910390fd5b600073ffffffffffffffffffffffffffffffffffffffff168273ffffffffffffffffffffffffffffffffffffffff160361143e576040517f08c379a00000000000000000000000000000000000000000000000000000000081526004016114359061307c565b60405180910390fd5b61144b838383600161199b565b8273ffffffffffffffffffffffffffffffffffffffff1661146b82610bc1565b73ffffffffffffffffffffffffffffffffffffffff16146114c1576040517f08c379a00000000000000000000000000000000000000000000000000000000081526004016114b890612fea565b60405180910390fd5b6004600082815260200190815260200160002060006101000a81549073ffffffffffffffffffffffffffffffffffffffff02191690556001600360008573ffffffffffffffffffffffffffffffffffffffff1673ffffffffffffffffffffffffffffffffffffffff168152602001908152602001600020600082825403925050819055506001600360008473ffffffffffffffffffffffffffffffffffffffff1673ffffffffffffffffffffffffffffffffffffffff16815260200190815260200160002060008282540192505081905550816002600083815260200190815260200160002060006101000a81548173ffffffffffffffffffffffffffffffffffffffff021916908373ffffffffffffffffffffffffffffffffffffffff160217905550808273ffffffffffffffffffffffffffffffffffffffff168473ffffffffffffffffffffffffffffffffffffffff167fddf252ad1be2c89b69c2b068fc378daa952ba7f163c4a11628f55a4df523b3ef60405160405180910390a461164d8383836001611ac1565b505050565b60006002600083815260200190815260200160002060009054906101000a900473ffffffffffffffffffffffffffffffffffffffff169050919050565b6116a9828260405180602001604052806000815250611ac7565b5050565b8173ffffffffffffffffffffffffffffffffffffffff168373ffffffffffffffffffffffffffffffffffffffff160361171b576040517f08c379a0000000000000000000000000000000000000000000000000000000008152600401611712906130e8565b60405180910390fd5b80600560008573ffffffffffffffffffffffffffffffffffffffff1673ffffffffffffffffffffffffffffffffffffffff16815260200190815260200160002060008473ffffffffffffffffffffffffffffffffffffffff1673ffffffffffffffffffffffffffffffffffffffff16815260200190815260200160002060006101000a81548160ff0219169083151502179055508173ffffffffffffffffffffffffffffffffffffffff168373ffffffffffffffffffffffffffffffffffffffff167f17307eab39ab6107e8899845ad3d59bd9653f200f220920489ca2b5937696c318360405161180c9190612111565b60405180910390a3505050565b611824848484611359565b61183084848484611b22565b61186f576040517f08c379a00000000000000000000000000000000000000000000000000000000081526004016118669061317a565b60405180910390fd5b50505050565b606060405180602001604052806000815250905090565b60606000600161189b84611ca9565b01905060008167ffffffffffffffff8111156118ba576118b96122a7565b5b6040519080825280601f01601f1916602001820160405280156118ec5781602001600182028036833780820191505090505b509050600082602001820190505b60011561194f578080600190039150507f3031323334353637383961626364656600000000000000000000000000000000600a86061a8153600a85816119435761194261319a565b5b049450600085036118fa575b819350505050919050565b60008073ffffffffffffffffffffffffffffffffffffffff1661197c83611652565b73ffffffffffffffffffffffffffffffffffffffff1614159050919050565b6001811115611abb57600073ffffffffffffffffffffffffffffffffffffffff168473ffffffffffffffffffffffffffffffffffffffff1614611a2f5780600360008673ffffffffffffffffffffffffffffffffffffffff1673ffffffffffffffffffffffffffffffffffffffff1681526020019081526020016000206000828254611a2791906131c9565b925050819055505b600073ffffffffffffffffffffffffffffffffffffffff168373ffffffffffffffffffffffffffffffffffffffff1614611aba5780600360008573ffffffffffffffffffffffffffffffffffffffff1673ffffffffffffffffffffffffffffffffffffffff1681526020019081526020016000206000828254611ab291906131fd565b925050819055505b5b50505050565b50505050565b611ad18383611dfc565b611ade6000848484611b22565b611b1d576040517f08c379a0000000000000000000000000000000000000000000000000000000008152600401611b149061317a565b60405180910390fd5b505050565b6000611b438473ffffffffffffffffffffffffffffffffffffffff16612019565b15611c9c578373ffffffffffffffffffffffffffffffffffffffff1663150b7a02611b6c611203565b8786866040518563ffffffff1660e01b8152600401611b8e9493929190613286565b6020604051808303816000875af1925050508015611bca57506040513d601f19601f82011682018060405250810190611bc791906132e7565b60015b611c4c573d8060008114611bfa576040519150601f19603f3d011682016040523d82523d6000602084013e611bff565b606091505b506000815103611c44576040517f08c379a0000000000000000000000000000000000000000000000000000000008152600401611c3b9061317a565b60405180910390fd5b805181602001fd5b63150b7a0260e01b7bffffffffffffffffffffffffffffffffffffffffffffffffffffffff1916817bffffffffffffffffffffffffffffffffffffffffffffffffffffffff191614915050611ca1565b600190505b949350505050565b600080600090507a184f03e93ff9f4daa797ed6e38ed64bf6a1f0100000000000000008310611d07577a184f03e93ff9f4daa797ed6e38ed64bf6a1f0100000000000000008381611cfd57611cfc61319a565b5b0492506040810190505b6d04ee2d6d415b85acef81000000008310611d44576d04ee2d6d415b85acef81000000008381611d3a57611d3961319a565b5b0492506020810190505b662386f26fc100008310611d7357662386f26fc100008381611d6957611d6861319a565b5b0492506010810190505b6305f5e1008310611d9c576305f5e1008381611d9257611d9161319a565b5b0492506008810190505b6127108310611dc1576127108381611db757611db661319a565b5b0492506004810190505b60648310611de45760648381611dda57611dd961319a565b5b0492506002810190505b600a8310611df3576001810190505b80915050919050565b600073ffffffffffffffffffffffffffffffffffffffff168273ffffffffffffffffffffffffffffffffffffffff1603611e6b576040517f08c379a0000000000000000000000000000000000000000000000000000000008152600401611e6290613360565b60405180910390fd5b611e748161195a565b15611eb4576040517f08c379a0000000000000000000000000000000000000000000000000000000008152600401611eab906133cc565b60405180910390fd5b611ec260008383600161199b565b611ecb8161195a565b15611f0b576040517f08c379a0000000000000000000000000000000000000000000000000000000008152600401611f02906133cc565b60405180910390fd5b6001600360008473ffffffffffffffffffffffffffffffffffffffff1673ffffffffffffffffffffffffffffffffffffffff16815260200190815260200160002060008282540192505081905550816002600083815260200190815260200160002060006101000a81548173ffffffffffffffffffffffffffffffffffffffff021916908373ffffffffffffffffffffffffffffffffffffffff160217905550808273ffffffffffffffffffffffffffffffffffffffff16600073ffffffffffffffffffffffffffffffffffffffff167fddf252ad1be2c89b69c2b068fc378daa952ba7f163c4a11628f55a4df523b3ef60405160405180910390a4612015600083836001611ac1565b5050565b6000808273ffffffffffffffffffffffffffffffffffffffff163b119050919050565b60405180606001604052806000815260200160608152602001600081525090565b6000604051905090565b600080fd5b600080fd5b60007fffffffff0000000000000000000000000000000000000000000000000000000082169050919050565b6120a681612071565b81146120b157600080fd5b50565b6000813590506120c38161209d565b92915050565b6000602082840312156120df576120de612067565b5b60006120ed848285016120b4565b91505092915050565b60008115159050919050565b61210b816120f6565b82525050565b60006020820190506121266000830184612102565b92915050565b600081519050919050565b600082825260208201905092915050565b60005b8381101561216657808201518184015260208101905061214b565b60008484015250505050565b6000601f19601f8301169050919050565b600061218e8261212c565b6121988185612137565b93506121a8818560208601612148565b6121b181612172565b840191505092915050565b600060208201905081810360008301526121d68184612183565b905092915050565b6000819050919050565b6121f1816121de565b81146121fc57600080fd5b50565b60008135905061220e816121e8565b92915050565b60006020828403121561222a57612229612067565b5b6000612238848285016121ff565b91505092915050565b600073ffffffffffffffffffffffffffffffffffffffff82169050919050565b600061226c82612241565b9050919050565b61227c81612261565b82525050565b60006020820190506122976000830184612273565b92915050565b600080fd5b600080fd5b7f4e487b7100000000000000000000000000000000000000000000000000000000600052604160045260246000fd5b6122df82612172565b810181811067ffffffffffffffff821117156122fe576122fd6122a7565b5b80604052505050565b600061231161205d565b905061231d82826122d6565b919050565b600067ffffffffffffffff82111561233d5761233c6122a7565b5b61234682612172565b9050602081019050919050565b82818337600083830152505050565b600061237561237084612322565b612307565b905082815260208101848484011115612391576123906122a2565b5b61239c848285612353565b509392505050565b600082601f8301126123b9576123b861229d565b5b81356123c9848260208601612362565b91505092915050565b600080604083850312156123e9576123e8612067565b5b600083013567ffffffffffffffff8111156124075761240661206c565b5b612413858286016123a4565b9250506020612424858286016121ff565b9150509250929050565b61243781612261565b811461244257600080fd5b50565b6000813590506124548161242e565b92915050565b6000806040838503121561247157612470612067565b5b600061247f85828601612445565b9250506020612490858286016121ff565b9150509250929050565b6124a3816121de565b82525050565b600082825260208201905092915050565b60006124c58261212c565b6124cf81856124a9565b93506124df818560208601612148565b6124e881612172565b840191505092915050565b600060608301600083015161250b600086018261249a565b506020830151848203602086015261252382826124ba565b9150506040830151612538604086018261249a565b508091505092915050565b6000602082019050818103600083015261255d81846124f3565b905092915050565b60008060006060848603121561257e5761257d612067565b5b600061258c86828701612445565b935050602061259d86828701612445565b92505060406125ae868287016121ff565b9150509250925092565b6125c1816121de565b82525050565b60006020820190506125dc60008301846125b8565b92915050565b600080604083850312156125f9576125f8612067565b5b6000612607858286016121ff565b925050602061261885828601612445565b9150509250929050565b60006020828403121561263857612637612067565b5b600061264684828501612445565b91505092915050565b612658816120f6565b811461266357600080fd5b50565b6000813590506126758161264f565b92915050565b6000806040838503121561269257612691612067565b5b60006126a085828601612445565b92505060206126b185828601612666565b9150509250929050565b600067ffffffffffffffff8211156126d6576126d56122a7565b5b6126df82612172565b9050602081019050919050565b60006126ff6126fa846126bb565b612307565b90508281526020810184848401111561271b5761271a6122a2565b5b612726848285612353565b509392505050565b600082601f8301126127435761274261229d565b5b81356127538482602086016126ec565b91505092915050565b6000806000806080858703121561277657612775612067565b5b600061278487828801612445565b945050602061279587828801612445565b93505060406127a6878288016121ff565b925050606085013567ffffffffffffffff8111156127c7576127c661206c565b5b6127d38782880161272e565b91505092959194509250565b60006060820190506127f460008301866125b8565b81810360208301526128068185612183565b905061281560408301846125b8565b949350505050565b6000806040838503121561283457612833612067565b5b600061284285828601612445565b925050602061285385828601612445565b9150509250929050565b7f4e487b7100000000000000000000000000000000000000000000000000000000600052602260045260246000fd5b600060028204905060018216806128a457607f821691505b6020821081036128b7576128b661285d565b5b50919050565b7f4f6e6c79206f776e65722063616e20637265617465206368616e6e656c730000600082015250565b60006128f3601e83612137565b91506128fe826128bd565b602082019050919050565b60006020820190508181036000830152612922816128e6565b9050919050565b7f4e487b7100000000000000000000000000000000000000000000000000000000600052601160045260246000fd5b6000612963826121de565b91507fffffffffffffffffffffffffffffffffffffffffffffffffffffffffffffffff820361299557612994612929565b5b600182019050919050565b60008190508160005260206000209050919050565b60006020601f8301049050919050565b600082821b905092915050565b600060088302612a027fffffffffffffffffffffffffffffffffffffffffffffffffffffffffffffffff826129c5565b612a0c86836129c5565b95508019841693508086168417925050509392505050565b6000819050919050565b6000612a49612a44612a3f846121de565b612a24565b6121de565b9050919050565b6000819050919050565b612a6383612a2e565b612a77612a6f82612a50565b8484546129d2565b825550505050565b600090565b612a8c612a7f565b612a97818484612a5a565b505050565b5b81811015612abb57612ab0600082612a84565b600181019050612a9d565b5050565b601f821115612b0057612ad1816129a0565b612ada846129b5565b81016020851015612ae9578190505b612afd612af5856129b5565b830182612a9c565b50505b505050565b600082821c905092915050565b6000612b2360001984600802612b05565b1980831691505092915050565b6000612b3c8383612b12565b9150826002028217905092915050565b612b558261212c565b67ffffffffffffffff811115612b6e57612b6d6122a7565b5b612b78825461288c565b612b83828285612abf565b600060209050601f831160018114612bb65760008415612ba4578287015190505b612bae8582612b30565b865550612c16565b601f198416612bc4866129a0565b60005b82811015612bec57848901518255600182019150602085019450602081019050612bc7565b86831015612c095784890151612c05601f891682612b12565b8355505b6001600288020188555050505b505050505050565b7f4552433732313a20617070726f76616c20746f2063757272656e74206f776e6560008201527f7200000000000000000000000000000000000000000000000000000000000000602082015250565b6000612c7a602183612137565b9150612c8582612c1e565b604082019050919050565b60006020820190508181036000830152612ca981612c6d565b9050919050565b7f4552433732313a20617070726f76652063616c6c6572206973206e6f7420746f60008201527f6b656e206f776e6572206f7220617070726f76656420666f7220616c6c000000602082015250565b6000612d0c603d83612137565b9150612d1782612cb0565b604082019050919050565b60006020820190508181036000830152612d3b81612cff565b9050919050565b7f4552433732313a2063616c6c6572206973206e6f7420746f6b656e206f776e6560008201527f72206f7220617070726f76656400000000000000000000000000000000000000602082015250565b6000612d9e602d83612137565b9150612da982612d42565b604082019050919050565b60006020820190508181036000830152612dcd81612d91565b9050919050565b600081905092915050565b50565b6000612def600083612dd4565b9150612dfa82612ddf565b600082019050919050565b6000612e1082612de2565b9150819050919050565b7f4552433732313a20696e76616c696420746f6b656e2049440000000000000000600082015250565b6000612e50601883612137565b9150612e5b82612e1a565b602082019050919050565b60006020820190508181036000830152612e7f81612e43565b9050919050565b7f4552433732313a2061646472657373207a65726f206973206e6f74206120766160008201527f6c6964206f776e65720000000000000000000000000000000000000000000000602082015250565b6000612ee2602983612137565b9150612eed82612e86565b604082019050919050565b60006020820190508181036000830152612f1181612ed5565b9050919050565b600081905092915050565b6000612f2e8261212c565b612f388185612f18565b9350612f48818560208601612148565b80840191505092915050565b6000612f608285612f23565b9150612f6c8284612f23565b91508190509392505050565b7f4552433732313a207472616e736665722066726f6d20696e636f72726563742060008201527f6f776e6572000000000000000000000000000000000000000000000000000000602082015250565b6000612fd4602583612137565b9150612fdf82612f78565b604082019050919050565b6000602082019050818103600083015261300381612fc7565b9050919050565b7f4552433732313a207472616e7366657220746f20746865207a65726f2061646460008201527f7265737300000000000000000000000000000000000000000000000000000000602082015250565b6000613066602483612137565b91506130718261300a565b604082019050919050565b6000602082019050818103600083015261309581613059565b9050919050565b7f4552433732313a20617070726f766520746f2063616c6c657200000000000000600082015250565b60006130d2601983612137565b91506130dd8261309c565b602082019050919050565b60006020820190508181036000830152613101816130c5565b9050919050565b7f4552433732313a207472616e7366657220746f206e6f6e20455243373231526560008201527f63656976657220696d706c656d656e7465720000000000000000000000000000602082015250565b6000613164603283612137565b915061316f82613108565b604082019050919050565b6000602082019050818103600083015261319381613157565b9050919050565b7f4e487b7100000000000000000000000000000000000000000000000000000000600052601260045260246000fd5b60006131d4826121de565b91506131df836121de565b92508282039050818111156131f7576131f6612929565b5b92915050565b6000613208826121de565b9150613213836121de565b925082820190508082111561322b5761322a612929565b5b92915050565b600081519050919050565b600082825260208201905092915050565b600061325882613231565b613262818561323c565b9350613272818560208601612148565b61327b81612172565b840191505092915050565b600060808201905061329b6000830187612273565b6132a86020830186612273565b6132b560408301856125b8565b81810360608301526132c7818461324d565b905095945050505050565b6000815190506132e18161209d565b92915050565b6000602082840312156132fd576132fc612067565b5b600061330b848285016132d2565b91505092915050565b7f4552433732313a206d696e7420746f20746865207a65726f2061646472657373600082015250565b600061334a602083612137565b915061335582613314565b602082019050919050565b600060208201905081810360008301526133798161333d565b9050919050565b7f4552433732313a20746f6b656e20616c7265616479206d696e74656400000000600082015250565b60006133b6601c83612137565b91506133c182613380565b602082019050919050565b600060208201905081810360008301526133e5816133a9565b905091905056fea26469706673582212202f1984f0bcfd7e44a3fe1bc10aa9db76a7088df29cbdbad3688c1a185a62372464736f6c63430008110033",
  "linkReferences": {},
  "deployedLinkReferences": {}
}